{
  "contractName": "PredictionMarket",
  "abi": [
    {
      "inputs": [
        {
          "internalType": "address",
          "name": "_oracle",
          "type": "address"
        }
      ],
      "stateMutability": "nonpayable",
      "type": "constructor"
    },
    {
      "inputs": [
        {
          "internalType": "enum PredictionMarket.Side",
          "name": "",
          "type": "uint8"
        }
      ],
      "name": "bets",
      "outputs": [
        {
          "internalType": "uint256",
          "name": "",
          "type": "uint256"
        }
      ],
      "stateMutability": "view",
      "type": "function",
      "constant": true
    },
    {
      "inputs": [
        {
          "internalType": "address",
          "name": "",
          "type": "address"
        },
        {
          "internalType": "enum PredictionMarket.Side",
          "name": "",
          "type": "uint8"
        }
      ],
      "name": "betsPerGambler",
      "outputs": [
        {
          "internalType": "uint256",
          "name": "",
          "type": "uint256"
        }
      ],
      "stateMutability": "view",
      "type": "function",
      "constant": true
    },
    {
      "inputs": [],
      "name": "electionFinished",
      "outputs": [
        {
          "internalType": "bool",
          "name": "",
          "type": "bool"
        }
      ],
      "stateMutability": "view",
      "type": "function",
      "constant": true
    },
    {
      "inputs": [],
      "name": "oracle",
      "outputs": [
        {
          "internalType": "address",
          "name": "",
          "type": "address"
        }
      ],
      "stateMutability": "view",
      "type": "function",
      "constant": true
    },
    {
      "inputs": [],
      "name": "result",
      "outputs": [
        {
          "internalType": "enum PredictionMarket.Side",
          "name": "winner",
          "type": "uint8"
        },
        {
          "internalType": "enum PredictionMarket.Side",
          "name": "loser",
          "type": "uint8"
        }
      ],
      "stateMutability": "view",
      "type": "function",
      "constant": true
    },
    {
      "inputs": [
        {
          "internalType": "enum PredictionMarket.Side",
          "name": "_side",
          "type": "uint8"
        }
      ],
      "name": "placeBet",
      "outputs": [],
      "stateMutability": "payable",
      "type": "function",
      "payable": true
    },
    {
      "inputs": [],
      "name": "withdrawGain",
      "outputs": [],
      "stateMutability": "nonpayable",
      "type": "function"
    },
    {
      "inputs": [
        {
          "internalType": "enum PredictionMarket.Side",
          "name": "_winner",
          "type": "uint8"
        },
        {
          "internalType": "enum PredictionMarket.Side",
          "name": "_loser",
          "type": "uint8"
        }
      ],
      "name": "reportResult",
      "outputs": [],
      "stateMutability": "nonpayable",
      "type": "function"
    },
    {
      "inputs": [],
      "name": "flipelectionFinished",
      "outputs": [],
      "stateMutability": "nonpayable",
      "type": "function"
    }
  ],
  "bytecode": "0x60806040526000600160006101000a81548160ff02191690831515021790555034801561002b57600080fd5b50604051610f71380380610f71833981810160405281019061004d91906100f7565b80600460006101000a81548173ffffffffffffffffffffffffffffffffffffffff021916908373ffffffffffffffffffffffffffffffffffffffff16021790555050610124565b600080fd5b600073ffffffffffffffffffffffffffffffffffffffff82169050919050565b60006100c482610099565b9050919050565b6100d4816100b9565b81146100df57600080fd5b50565b6000815190506100f1816100cb565b92915050565b60006020828403121561010d5761010c610094565b5b600061011b848285016100e2565b91505092915050565b610e3e806101336000396000f3fe6080604052600436106100865760003560e01c80637dc0d1d0116100595780637dc0d1d0146101135780637e0ecc001461013e5780639d5a37391461017b578063beab6e7e146101b8578063ddb06445146101e357610086565b80632b539c861461008b57806343046844146100a25780634ec942b7146100be57806365372147146100e7575b600080fd5b34801561009757600080fd5b506100a06101fa565b005b6100bc60048036038101906100b79190610897565b610512565b005b3480156100ca57600080fd5b506100e560048036038101906100e091906108c4565b610644565b005b3480156100f357600080fd5b506100fc6107a0565b60405161010a92919061097b565b60405180910390f35b34801561011f57600080fd5b506101286107cc565b60405161013591906109e5565b60405180910390f35b34801561014a57600080fd5b5061016560048036038101906101609190610897565b6107f2565b6040516101729190610a19565b60405180910390f35b34801561018757600080fd5b506101a2600480360381019061019d9190610a60565b61080a565b6040516101af9190610a19565b60405180910390f35b3480156101c457600080fd5b506101cd61082f565b6040516101da9190610abb565b60405180910390f35b3480156101ef57600080fd5b506101f8610842565b005b6000600360003373ffffffffffffffffffffffffffffffffffffffff1673ffffffffffffffffffffffffffffffffffffffff16815260200190815260200160002060008060000160009054906101000a900460ff16600181111561026157610260610904565b5b600181111561027357610272610904565b5b8152602001908152602001600020549050600081116102c7576040517f08c379a00000000000000000000000000000000000000000000000000000000081526004016102be90610b33565b60405180910390fd5b60011515600160009054906101000a900460ff1615151461031d576040517f08c379a000000000000000000000000000000000000000000000000000000000815260040161031490610b9f565b60405180910390fd5b6000600260008060000160009054906101000a900460ff16600181111561034757610346610904565b5b600181111561035957610358610904565b5b81526020019081526020016000205482600260008060000160019054906101000a900460ff16600181111561039157610390610904565b5b60018111156103a3576103a2610904565b5b8152602001908152602001600020546103bc9190610bee565b6103c69190610c5f565b826103d19190610c90565b90506000600360003373ffffffffffffffffffffffffffffffffffffffff1673ffffffffffffffffffffffffffffffffffffffff168152602001908152602001600020600080600181111561042957610428610904565b5b600181111561043b5761043a610904565b5b8152602001908152602001600020819055506000600360003373ffffffffffffffffffffffffffffffffffffffff1673ffffffffffffffffffffffffffffffffffffffff16815260200190815260200160002060006001808111156104a3576104a2610904565b5b60018111156104b5576104b4610904565b5b8152602001908152602001600020819055503373ffffffffffffffffffffffffffffffffffffffff166108fc829081150290604051600060405180830381858888f1935050505015801561050d573d6000803e3d6000fd5b505050565b60001515600160009054906101000a900460ff16151514610568576040517f08c379a000000000000000000000000000000000000000000000000000000000815260040161055f90610d10565b60405180910390fd5b34600260008360018111156105805761057f610904565b5b600181111561059257610591610904565b5b815260200190815260200160002060008282546105af9190610c90565b9250508190555034600360003373ffffffffffffffffffffffffffffffffffffffff1673ffffffffffffffffffffffffffffffffffffffff168152602001908152602001600020600083600181111561060b5761060a610904565b5b600181111561061d5761061c610904565b5b8152602001908152602001600020600082825461063a9190610c90565b9250508190555050565b3373ffffffffffffffffffffffffffffffffffffffff16600460009054906101000a900473ffffffffffffffffffffffffffffffffffffffff1673ffffffffffffffffffffffffffffffffffffffff16146106d4576040517f08c379a00000000000000000000000000000000000000000000000000000000081526004016106cb90610d7c565b60405180910390fd5b60001515600160009054906101000a900460ff1615151461072a576040517f08c379a000000000000000000000000000000000000000000000000000000000815260040161072190610de8565b60405180910390fd5b816000800160006101000a81548160ff0219169083600181111561075157610750610904565b5b0217905550806000800160016101000a81548160ff0219169083600181111561077d5761077c610904565b5b021790555060018060006101000a81548160ff0219169083151502179055505050565b60008060000160009054906101000a900460ff16908060000160019054906101000a900460ff16905082565b600460009054906101000a900473ffffffffffffffffffffffffffffffffffffffff1681565b60026020528060005260406000206000915090505481565b6003602052816000526040600020602052806000526040600020600091509150505481565b600160009054906101000a900460ff1681565b600061084f576001610852565b60015b600160006101000a81548160ff021916908315150217905550565b600080fd5b6002811061087f57600080fd5b50565b60008135905061089181610872565b92915050565b6000602082840312156108ad576108ac61086d565b5b60006108bb84828501610882565b91505092915050565b600080604083850312156108db576108da61086d565b5b60006108e985828601610882565b92505060206108fa85828601610882565b9150509250929050565b7f4e487b7100000000000000000000000000000000000000000000000000000000600052602160045260246000fd5b6002811061094457610943610904565b5b50565b600081905061095582610933565b919050565b600061096582610947565b9050919050565b6109758161095a565b82525050565b6000604082019050610990600083018561096c565b61099d602083018461096c565b9392505050565b600073ffffffffffffffffffffffffffffffffffffffff82169050919050565b60006109cf826109a4565b9050919050565b6109df816109c4565b82525050565b60006020820190506109fa60008301846109d6565b92915050565b6000819050919050565b610a1381610a00565b82525050565b6000602082019050610a2e6000830184610a0a565b92915050565b610a3d816109c4565b8114610a4857600080fd5b50565b600081359050610a5a81610a34565b92915050565b60008060408385031215610a7757610a7661086d565b5b6000610a8585828601610a4b565b9250506020610a9685828601610882565b9150509250929050565b60008115159050919050565b610ab581610aa0565b82525050565b6000602082019050610ad06000830184610aac565b92915050565b600082825260208201905092915050565b7f796f7520646f206e6f74206861766520616e792077696e6e696e672062657400600082015250565b6000610b1d601f83610ad6565b9150610b2882610ae7565b602082019050919050565b60006020820190508181036000830152610b4c81610b10565b9050919050565b7f656c656374696f6e206e6f742066696e69736865640000000000000000000000600082015250565b6000610b89601583610ad6565b9150610b9482610b53565b602082019050919050565b60006020820190508181036000830152610bb881610b7c565b9050919050565b7f4e487b7100000000000000000000000000000000000000000000000000000000600052601160045260246000fd5b6000610bf982610a00565b9150610c0483610a00565b9250828202610c1281610a00565b91508282048414831517610c2957610c28610bbf565b5b5092915050565b7f4e487b7100000000000000000000000000000000000000000000000000000000600052601260045260246000fd5b6000610c6a82610a00565b9150610c7583610a00565b925082610c8557610c84610c30565b5b828204905092915050565b6000610c9b82610a00565b9150610ca683610a00565b9250828201905080821115610cbe57610cbd610bbf565b5b92915050565b7f656c65636574696f6e2069732066696e69736865640000000000000000000000600082015250565b6000610cfa601583610ad6565b9150610d0582610cc4565b602082019050919050565b60006020820190508181036000830152610d2981610ced565b9050919050565b7f6f6e6c79206f7261636c65000000000000000000000000000000000000000000600082015250565b6000610d66600b83610ad6565b9150610d7182610d30565b602082019050919050565b60006020820190508181036000830152610d9581610d59565b9050919050565b7f656c656374696f6e20616c72656164792066696e697368656400000000000000600082015250565b6000610dd2601983610ad6565b9150610ddd82610d9c565b602082019050919050565b60006020820190508181036000830152610e0181610dc5565b905091905056fea2646970667358221220ce6a7811c78eea09ec02f845e8d0555e30326a98a74659ebfa1d65dcdfd2558764736f6c63430008130033",
  "immutableReferences": {},
  "source": "pragma solidity ^0.8.19;\n\ncontract PredictionMarket{\n    enum Side{ Biden, Trump}\n    struct Result{\n        Side winner;\n        Side loser;\n    }\n    Result public result;\n    bool public electionFinished = false;\n\n    mapping(Side => uint)public bets;\n    mapping(address => mapping(Side => uint))public betsPerGambler;\n    address public oracle;\n    constructor(address _oracle){\n        oracle = _oracle;\n    }\n\n    function placeBet(Side _side) external payable{\n        require(electionFinished == false, \"elecetion is finished\");\n        bets[_side] += msg.value;\n        betsPerGambler[msg.sender][_side] += msg.value;\n    }\n\n    function withdrawGain() external{\n        uint gamblerBet = betsPerGambler[msg.sender][result.winner];\n        require(gamblerBet > 0, 'you do not have any winning bet');\n        require(electionFinished == true, 'election not finished');\n        uint gain = gamblerBet + bets[result.loser] * gamblerBet/ bets[result.winner];\n        betsPerGambler[msg.sender][Side.Biden] = 0;\n        betsPerGambler[msg.sender][Side.Trump] = 0;\n        payable(msg.sender).transfer(gain);\n    }\n\n    function reportResult(Side _winner, Side _loser)external{\n        require(oracle == msg.sender, 'only oracle');\n        require(electionFinished == false, 'election already finished');\n        result.winner = _winner;\n        result.loser = _loser;\n        electionFinished = true;\n    }\n\n    function flipelectionFinished()external{\n        electionFinished = false ? true : true;\n    }\n}",
  "sourcePath": "/Users/liu/Documents/Projects/prediction-markets-us-election/contracts/PredictionMarket.sol",
  "compiler": {
    "name": "solc",
    "version": "0.8.19+commit.7dd6d404.Emscripten.clang"
  },
  "schemaVersion": "3.4.13",
  "updatedAt": "2023-03-14T08:07:03.134Z",
  "networkType": "ethereum",
  "devdoc": {
    "kind": "dev",
    "methods": {},
    "version": 1
  },
  "userdoc": {
    "kind": "user",
    "methods": {},
    "version": 1
  }
}